:020000040800F2
:10000000700700202902000833040008D503000807
:100010002F040008F50200087F0D00080000000012
:10002000000000000000000000000000750600084D
:10003000F902000800000000290500083D0700083B
:10004000430200084302000843020008430200087C
:10005000430200084302000843020008430200086C
:10006000430200084302000843020008430200085C
:10007000430200084302000843020008430200084C
:10008000430200084302000843020008430200083C
:10009000430200084302000843020008430200082C
:1000A000430200084302000843020008430200081C
:1000B000A9070008430200084302000843020008A1
:1000C00043020008430200084302000843020008FC
:1000D00043020008750B00084302000843020008B1
:1000E00043020008430200084302000843020008DC
:1000F00043020008430200084302000843020008CC
:1001000043020008430200084302000843020008BB
:1001100043020008430200084302000843020008AB
:10012000430200084302000843020008430200089B
:10013000430200084302000843020008430200088B
:10014000430200084302000843020008430200087B
:10015000430200084302000843020008430200086B
:10016000430200084302000843020008430200085B
:10017000430200084302000843020008430200084B
:10018000430200084302000800F002F800F03CF8C7
:100190000AA090E8000C82448344AAF10107DA45E2
:1001A00001D100F031F8AFF2090EBAE80F0013F0F8
:1001B000010F18BFFB1A43F0010318479C530000BE
:1001C000BC530000103A24BF78C878C1FAD852074F
:1001D00024BF30C830C144BF04680C6070470000C1
:1001E0000023002400250026103A28BF78C1FBD840
:1001F000520728BF30C148BF0B6070471FB505F0DC
:100200009AF81FBD10B510BD00F046F81146FFF773
:10021000F5FF03F04BF800F064F803B4FFF7F2FFCA
:1002200003BC02F0D5FF0000094880470948004799
:10023000FEE7FEE7FEE7FEE7FEE7FEE7FEE7FEE796
:10024000FEE7FEE704480549054A064B70470000F3
:100250004107000889010008700100207007002094
:10026000700300207003002070477047704770478C
:10027000704710B500F008F8006810BD10B50446CE
:1002800000F002F8046010BD004870470C01002027
:10029000004870470C0100207546FFF7F9FFAE4695
:1002A00005006946534620F00700854618B020B582
:1002B000FFF7C8FFBDE820404FF000064FF00007F1
:1002C0004FF000084FF0000B21F00701AC46ACE8FE
:1002D000C009ACE8C009ACE8C009ACE8C0098D466B
:1002E000704710B50446AFF300802046BDE81040CB
:1002F000FFF793BF00BFFEE77047F0B50A46002145
:100300000023002400BF3DE0012505FA01F3156834
:1003100005EA03049C4234D105684F000326BE4021
:10032000B543056015794E00B54006683543056054
:100330001579012D02D01579022D16D185684F004F
:100340000326BE40B543856055794E00B5408668AA
:1003500035438560456801268E40B5434560456854
:1003600096798E40B6B235434560C5684F00032686
:10037000BE40B543C560D5794E00B540C66835432B
:10038000C560491C1029BFD3F0BDF0B5002300247F
:100390004D07ED0E02FA05F3CE1000F1200555F8D9
:1003A00026504E07F70E0F26BE40B543CF1000F182
:1003B000200646F82750CE1000F1200555F82650AB
:1003C00045EA0304CE1000F1200545F82640F0BDB3
:1003D0004183704700BFFEE70146012903DB042982
:1003E00001DC08460DE0052905DB082903DC0C22A9
:1003F000A2EB410005E0092903DB0C2901DCA1F196
:100400000C0070470146012903DB042901DC0020B0
:100410000CE0052905DB082903DCC1F1040290008A
:1004200004E0092902DB0C2900DC0020704700BF32
:10043000FEE7704770B5002100230F22C4781CB37B
:10044000174C246804F4E064C4F5E064C4F30721A5
:10045000C1F10404E3B20A4144789C40E1B28478DB
:10046000144021430C07210E0E4C05786155047889
:1004700004F01F050124AC4005786D11AD0005F1B5
:10048000E025C5F8004109E0047804F01F050124C7
:10049000AC40054D0678761145F8264070BD000049
:1004A0000CED00E000E400E080E100E01FB5012178
:1004B000084600F03BF840F2FF10029001208DF852
:1004C0000C0000208DF80E0003208DF80D00012097
:1004D0008DF80F0002A91248FFF70FFF40F2FF113D
:1004E0000F48FFF775FF0121022000F01FF840F2CE
:1004F0000740009001208DF8040000208DF80600D0
:1005000003208DF8050001208DF807006946054895
:10051000FFF7F3FE40F207410248FFF759FF1FBD06
:1005200000000240000402407047000029B1064A62
:1005300012680243044B1A6004E0034A12688243C3
:10054000014B1A60704700003038024029B1064A5A
:1005500012680243044B1A6004E0034A12688243A3
:10056000014B1A60704700004038024029B1064A2A
:1005700012680243044B1A6004E0034A1268824383
:10058000014B1A607047000044380240F0B500216A
:1005900000220024022500260223324F3F6807F084
:1005A0000C0121B1042905D0082937D105E02E4FCF
:1005B000076036E02D4F076033E02A4F3F1F3F684A
:1005C000C7F38056274F3F1F3F6807F03F036EB1C8
:1005D000264FB7FBF3F7DFF88CC0ACF1040CDCF866
:1005E00000C0CCF3881C07FB0CF40CE01E4FB7FBDB
:1005F000F3F7DFF870C0ACF1040CDCF800C0CCF30A
:10060000881C07FB0CF4174F3F1F3F68C7F30147D7
:100610007F1C7D00B4FBF5F7076002E0124F076016
:1006200000BF00BF0F4F3F6807F0F0010909104FEE
:100630007A5C0768D74047600A4F3F6807F4E0518B
:10064000890A0B4F7A5C4768D7408760054F3F683F
:1006500007F46041490B064F7A5C4768D740C76092
:10066000F0BD0000083802400024F40000127A00B7
:1006700032000020704700002248006840F080509F
:10068000204908602048006840F440401E49086046
:100690001C48383800681B4938390860084600682B
:1006A00008600846006840F4805008601748091F39
:1006B0000860081F006840F08070091F086000BFD4
:1006C00010484038006800F000700028F8D040F270
:1006D00002700F4908600B483838006820F00300AA
:1006E0000849383908600846006840F00200086090
:1006F00000BF04483838006800F00C000828F8D122
:10070000704700004038024000700040106401074C
:10071000003C0240042808D14FF0E021096941F073
:1007200004014FF0E022116107E04FF0E021096978
:1007300021F004014FF0E022116170477047000082
:1007400010B51548006840F470001349086013485C
:10075000006840F001001149086000200F4908318D
:1007600008600E4800680E4908400C4908600D48B2
:10077000091D0860081F006820F48020091F086018
:10078000002006490C310860FFF776FF4FF000604B
:1007900001498039086010BD88ED00E00038024052
:1007A000FFFFF6FE1030002410B50121880700F08D
:1007B00085F901287ED10121800700F070F9904869
:1007C0000088401C8E4908808E480088401C8D4956
:1007D00008808D480088401C8B4908808B48008821
:1007E000401C8A4908808A480088401C8849088043
:1007F00088480088401C8749088087480088401C3A
:100800008549088085480088401C844908808448C0
:100810000088401C8249088082480088401C814929
:10082000088081480088401C7F4908807F480088F4
:10083000401C7E4908807E480078C0F1EB0070497A
:100840000988884202D100207A49086078484078B7
:1008500035306C490988884203D100207549091D4B
:100860000860734880783C3067490988884203D122
:1008700000207049083108606D48C078C0F1F90067
:1008800062490988884203D100206A490C31086016
:1008900067480079C0F1F0005D490988884203D1BA
:1008A0000020644910310860614840793630594968
:1008B000098800E0A2E0884203D100205D4914319C
:1008C00008605B488079C0F1EB0053490988884291
:1008D00003D100205749183108605548C07943308A
:1008E0004E490988884203D1002052491C310860D2
:1008F0004F48007A36304A490988884202D10020A0
:100900004D4908604A48407AC0F1F90045490988D4
:10091000884203D100204849091D08604448807A74
:10092000C0F1F00040490988884203D100204249C3
:10093000083108603E48C07A4B303C4909888842FB
:1009400003D100203C49283108602D480088B0F5CB
:10095000FA6F53DB00202A490880012035490860DE
:1009600000202849088001203449C1F88402002071
:100970002549088001202F490831086000202349BB
:10098000088001202B490C31086000202049088094
:10099000012028491031086000201E4908800120EC
:1009A00024491431086000201B4908800120214996
:1009B0001831086000201949088001201D491C31A8
:1009C000086000201649088001201B4908600020AB
:1009D0001449088001201849091D086000201249A7
:1009E0000880012014490831086000200F49088060
:1009F00001201149283108601149087010BD00001C
:100A00000C0000200E00002010000020120000202A
:100A10001400002016000020180000201A000020FA
:100A20001C0000201E0000202000002022000020CA
:100A3000000000208002404280824042000040428C
:100A4000240000207FB505460C4601210846FFF72B
:100A50007DFD0295ADF804400020ADF80600ADF82C
:100A60000C0001A94FF0804000F042F8012211462D
:100A7000900700F034F81C208DF8000001208DF85C
:100A8000010003208DF8020001208DF80300684664
:100A9000FFF7D0FC0121880700F004F87FBDCA43AE
:100AA0000282704721B1028842F00102028004E014
:100AB00002884FF6FE731A400280704730B5024636
:100AC000002000230024158A05EA0103958905EA20
:100AD000010413B10CB1012000E0002030BD1AB1B7
:100AE00083890B43838102E083898B438381704731
:100AF00000220288184B98420ED0184B98420BD017
:100B0000B0F1804F08D0164B984205D0154B984253
:100B100002D0154B984204D14FF68F731A404B8880
:100B20001A43124B984207D0114B984204D04FF60B
:100B3000FF431A400B891A4302804B68C3620B883B
:100B40000385054B984202D0044B984201D18B7A21
:100B500003860123838270470000014000040140A6
:100B60000004004000080040000C0040001000405D
:100B70000014004010B540F22551184800F040F82C
:100B800050B3164800F0F6F8C4B21548008800F4D7
:100B9000004008BB5B2C06D11148008840F480401F
:100BA0000F49088018E00E48008800F4804098B192
:100BB0005D2C06D10A48008840F4004008490880AE
:100BC0000AE007480088C0F30D0006490C540448A9
:100BD0000088401C0249088010BD00000010014040
:100BE000300000204400002021B1828942F40052EC
:100BF000828104E082894DF6FF731A40828170473A
:100C000070B50246002400230025002040F66A1635
:100C1000B14200D100BFC1F3421501F01F0301260C
:100C200006FA03F3012D02D19689334006E0022D26
:100C300002D1168A334001E0968A33400C12012615
:100C400006FA04F41688344013B10CB1012000E018
:100C5000002070BDF0B503460024002600250020CA
:100C600040F66A17B94200D100BF1846C1F34214DA
:100C700001F01F06012707FA06F5012C01D10C30FF
:100C800004E0022C01D1103000E014301AB10768E2
:100C90002F43076002E00768AF430760F0BD000024
:100CA0002DE9FF4705460E460024A14600BFA04699
:100CB000B08900B100BF2C8A24F44054F08804436A
:100CC0002C82AC8941F20C608443B088318908439E
:100CD000718908430443AC81AC8A24F44074B08920
:100CE0000443AC826846FFF751FC2048854202D09D
:100CF0001F48854202D1DDF80C9001E0DDF8089034
:100D0000A88900F4004040B109EBC90000EB0910CC
:100D100031684900B0FBF1F707E009EBC90000EBCF
:100D2000091031688900B0FBF1F76420B7FBF0F0DF
:100D300004012009642101FB1078A88900F4004017
:100D400040B1322000EBC800B0FBF1F000F007002A
:100D5000044308E0322000EB08106421B0FBF1F0FE
:100D600000F00F0004432C81BDE8FF870010014014
:100D70000014014001468888C0F30800704700BF96
:100D8000FEE700000FB5ABB02B98404200EE100A12
:100D9000B8EEC00A8DED290A9DED2C0AB8EEC00A06
:100DA0008DED280A9DED2D0AB8EEC00A8DED270ABB
:100DB0009DED270AB5EEC00AF1EE10FA32DD9DED89
:100DC000280ADDED270A80EE201A8DED111A119800
:100DD00004F040FACDE912019DED120B01F070FB19
:100DE0008DED140B9FEDFE0B53EC102B9DED140BB2
:100DF00051EC100B03F06EFF9FEDFB0B53EC102B2F
:100E0000CDE916019DED160B51EC100B03F082FDA0
:100E1000CDE918019DED180B51EC100B03F002FF0A
:100E2000C0B224909DED270AB5EEC00AF1EE10FA8B
:100E30003ED29DED280ADDED270A80EE201A8DEDC9
:100E40000F1A0F9804F006FACDE910019DED100B72
:100E500001F036FB8DED120B9FEDE10B53EC102BE7
:100E60009DED120B51EC100B03F034FF9FEDDE0BE8
:100E700053EC102BCDE914019DED140B51EC100B2C
:100E800003F048FD9FEDD60B53EC102BCDE9160176
:100E90009DED160B51EC100B03F094FCCDE91801FD
:100EA0009DED180B51EC100B03F0BCFEC0B224906A
:100EB0009DED270AB5EEC00AF1EE10FA01D15A20D5
:100EC00024909DED290A20EE000ADDED280A00EEAF
:100ED000A00ADDED270A00EEA00A8DED0B0A0B98A3
:100EE00004F0B8F9CDE90C019DED0C0B01F01CFDEF
:100EF0008DED0E0B9FEDBE0B53EC102B9DED0E0BED
:100F000051EC100B04F0BCF8CDE912019DED290A5B
:100F100020EE000ADDED280A00EEA00ADDED270A2A
:100F200000EEA00A8DED0B0A0B9804F093F9CDE9C1
:100F30000C019DED0C0B01F0F7FC8DED0E0B9FED00
:100F4000AC0B53EC102B9DED0E0B51EC100B04F081
:100F500097F8CDE910019DED120B53EC102B9DED90
:100F6000100B51EC100B03F0B5FE9FEDA30B53ECEF
:100F7000102BCDE914019DED140B51EC100B03F077
:100F8000A7FF9FED9D0B53EC102BCDE916019DEDB6
:100F9000160B51EC100B03F0BDFCCDE918019DEDD3
:100FA000180B51EC100B03F0DBFB2A902A9804F08D
:100FB00051F9CDE910019DED100B01F0D5F88DED43
:100FC000120B9FED870B53EC102B9DED120B51EC88
:100FD000100B03F07FFE9FED840B53EC102BCDE93B
:100FE00014019DED140B51EC100B03F093FC9FEDDD
:100FF0007C0B53EC102BCDE916019DED160B51EC3B
:10100000100B03F065FFCDE918019DED180B51ECB5
:10101000100B03F007FEC0B225909DED290AB5EE36
:10102000C00AF1EE10FA74DD25981A9000EBD0702A
:101030004010139003F023FECDE91601299804F027
:1010400009F9CDE90C01249803F030FECDE9020145
:101050009DED020B01F0A0FB8DED040B9FED640BE9
:1010600053EC102B9DED040B51EC100B03F032FEF2
:10107000CDE90801289804F0EDF8CDE906019DEDD1
:10108000080B53EC102B9DED060B51EC100B03F0ED
:10109000F7FFCDE90A019DED0C0B53EC102B9DEDF4
:1010A0000A0B51EC100B03F035FCCDE90E019DED60
:1010B0000E0B01F005FA8DED100B9FED490B53EC73
:1010C000102B9DED100B51EC100B03F003FE9FED68
:1010D000460B53EC102BCDE912019DED120B51EC98
:1010E000100B03F017FCCDE914019DED160B53EC2A
:1010F000102B9DED140B51EC100B03F0C1FFCDE94B
:1011000018019DED180B51EC100B03F08BFDC0B2D4
:1011100026909DED290AB5EEC00AF1EE10FA6FD2C5
:1011200025981A9000EBD0704010139003F0A7FDA3
:10113000CDE91601299804F08DF8CDE90A0124982B
:1011400003F0B4FDCDE900019DED000B01F024FB9F
:101150008DED020B9FED260B53EC102B9DED020B3A
:1011600051EC100B03F0B6FDCDE90601289804F010
:1011700071F8CDE904019DED060B53EC102B9DEDAC
:10118000040B51EC100B03F07BFFCDE908019DED42
:101190000A0B53EC102B9DED080B51EC100B03F0D8
:1011A000B9FBCDE90C019DED0C0B01F089F98DED3A
:1011B0000E0B9FED0B0B53EC102B9DED0E0B51EC1A
:1011C000100B03F087FD9FED080B53EC102BCDE9BE
:1011D00010019DED100B51EC100B03F09BFB10E088
:1011E00000000000008066404AD8124DFB210940F3
:1011F0000000000000002040000000000000A940A6
:1012000021E01FED090B53EC102BCDE912019DEDF0
:10121000120B51EC100B03F0D5FACDE914019DED42
:10122000160B53EC102B9DED140B51EC100B03F02F
:1012300027FFCDE918019DED180B51EC100B03F0C1
:10124000F1FCC0B226909DED290AB5EEC00AF1EE80
:1012500010FA08D125981A9000EBD0704010C0F118
:101260005A00C0B22690FE492598C8712698487247
:101270002498C8723598404200EE100AB8EEC00AB1
:101280008DED290A9DED360AB8EEC00A8DED280ACB
:101290003798404200EE100AB8EEC00A8DED270ADA
:1012A0009DED270AB5EEC00AF1EE10FA32DD9DED94
:1012B000280ADDED270A80EE201A8DED111A11980B
:1012C00003F0C8FFCDE912019DED120B01F0F8F813
:1012D0008DED140B1FED3E0B53EC102B9DED140BFD
:1012E00051EC100B03F0F6FC1FED410B53EC102BEF
:1012F000CDE916019DED160B51EC100B03F00AFB26
:10130000CDE918019DED180B51EC100B03F08AFC90
:10131000C0B221909DED270AB5EEC00AF1EE10FA99
:101320003ED29DED280ADDED270A80EE201A8DEDD4
:101330000F1A0F9803F08EFFCDE910019DED100BF1
:1013400001F0BEF88DED120B1FED5B0B53EC102B73
:101350009DED120B51EC100B03F0BCFC1FED5E0B6E
:1013600053EC102BCDE914019DED140B51EC100B37
:1013700003F0D0FA1FED660B53EC102BCDE91601EC
:101380009DED160B51EC100B03F01CFACDE9180182
:101390009DED180B51EC100B03F044FCC0B22190F2
:1013A0009DED270AB5EEC00AF1EE10FA01D15A20E0
:1013B00021909DED290A20EE000ADDED280A00EEBD
:1013C000A00ADDED270A00EEA00A8DED0B0A0B98AE
:1013D00003F040FFCDE90C019DED0C0B01F0A4FAE8
:1013E0008DED0E0B1FED7E0B53EC102B9DED0E0BB8
:1013F00051EC100B03F044FECDE912019DED290ADA
:1014000020EE000ADDED280A00EEA00ADDED270A35
:1014100000EEA00A8DED0B0A0B9803F01BFFCDE93F
:101420000C019DED0C0B01F07FFA8DED0E0B1FED05
:10143000900B53EC102B9DED0E0B51EC100B03F0A9
:101440001FFECDE910019DED120B53EC102B9DED0D
:10145000100B51EC100B03F03DFC1FED990B53ECFE
:10146000102BCDE914019DED140B51EC100B03F082
:101470002FFD1FED9F0B53EC102BCDE916019DEDB9
:10148000160B51EC100B03F045FACDE918019DED58
:10149000180B51EC100B03F063F92A902A9803F013
:1014A000D9FECDE910019DED100B00F05DFE8DED34
:1014B000120B1FEDB50B53EC102B9DED120B51ECE5
:1014C000100B03F007FC1FEDB80B53EC102BCDE90C
:1014D00014019DED140B51EC100B03F01BFA1FEDE2
:1014E000C00B53EC102BCDE916019DED160B51EC02
:1014F000100B03F0EDFCCDE918019DED180B51EC3C
:10150000100B03F08FFBC0B222909DED290AB5EEBF
:10151000C00AF1EE10FA74DD22981A9000EBD07038
:101520004010139003F0ABFBCDE91601299803F0AE
:1015300091FECDE90C01219803F0B8FBCDE9020141
:101540009DED020B01F028F98DED040B1FEDD80B7A
:1015500053EC102B9DED040B51EC100B03F0BAFB78
:10156000CDE90801289803F075FECDE906019DED4F
:10157000080B53EC102B9DED060B51EC100B03F0F8
:101580007FFDCDE90A019DED0C0B53EC102B9DED79
:101590000A0B51EC100B03F0BDF9CDE90E019DEDE6
:1015A0000E0B00F08DFF8DED100B1FEDF30B53ECC8
:1015B000102B9DED100B51EC100B03F08BFB1FED6E
:1015C000F60B53EC102BCDE912019DED120B51ECF3
:1015D000100B03F09FF9CDE914019DED160B53ECB0
:1015E000102B9DED140B51EC100B03F049FDCDE9D0
:1015F00018019DED180B51EC100B03F013FBC0B25A
:1016000023909DED290AB5EEC00AF1EE10FA7CD2C6
:1016100022981A9000EBD0704010139003F02FFB2B
:10162000CDE91601299803F015FECDE90A012198AC
:1016300003F03CFBCDE900019DED000B01F0ACF89F
:101640008DED020B9FED070B53EC102B9DED020B64
:1016500051EC100B03F03EFBCDE90601289805E0A4
:1016600000000020000000000000204003F0F2FD18
:10167000CDE904019DED060B53EC102B9DED040B01
:1016800051EC100B03F0FCFCCDE908019DED0A0BB9
:1016900053EC102B9DED080B51EC100B03F03AF9B5
:1016A000CDE90C019DED0C0B00F00AFF8DED0E0B4A
:1016B0009FEDFE0B53EC102B9DED0E0B51EC100B20
:1016C00003F008FB9FEDFB0B53EC102BCDE9100151
:1016D0009DED100B51EC100B03F01CF99FEDF30B7B
:1016E00053EC102BCDE912019DED120B51EC100BB8
:1016F00003F068F8CDE914019DED160B53EC102BA7
:101700009DED140B51EC100B00E00BE003F0B8FC66
:10171000CDE918019DED180B51EC100B03F082FA86
:10172000C0B223909DED290AB5EEC00AF1EE10FA81
:1017300008D122981A9000EBD0704010C0F15A00E6
:10174000C0B22390DD4922988871239808722198AD
:1017500088729DED2E0AB8EEC00A8DED290A9DED26
:10176000300AB8EEC00A8DED280A9DED310AB8EEB8
:10177000C00A8DED270A9DED270AB5EEC00AF1EEED
:1017800010FA32DD9DED280A9DED271AC0EE010A00
:10179000CDED110A119803F05DFDCDE912019DED2B
:1017A000120B00F08DFE8DED140B9FEDC00B53EC72
:1017B000102B9DED140B51EC100B03F08BFA9FEDE9
:1017C000BD0B53EC102BCDE916019DED160B51EC22
:1017D000100B03F09FF8CDE918019DED180B51ECAB
:1017E000100B03F01FFAC0B21E909DED270AB5EE54
:1017F000C00AF1EE10FA3ED29DED280ADDED270A6F
:1018000080EE201A8DED0F1A0F9803F023FDCDE91D
:1018100010019DED100B00F053FE8DED120B9FEDAE
:10182000A30B53EC102B9DED120B51EC100B03F09E
:1018300051FA9FEDA00B53EC102BCDE914019DED57
:10184000140B51EC100B03F065F89FED980B53EC63
:10185000102BCDE916019DED160B51EC100B02F08B
:10186000B1FFCDE918019DED180B51EC100B03F001
:10187000D9F9C0B21E909DED270AB5EEC00AF1EE6F
:1018800010FA01D15A201E909DED290A20EE000A7F
:10189000DDED280A00EEA00ADDED270A00EEA00A21
:1018A0008DED0B0A0B9803F0D5FCCDE90C019DEDF5
:1018B0000C0B01F039F88DED0E0B1FED960B53EC70
:1018C000102B9DED0E0B51EC100B03F0D9FBCDE965
:1018D00012019DED290A20EE000ADDED280A00EE36
:1018E000A00ADDED270A00EEA00A8DED0B0A0B9889
:1018F00003F0B0FCCDE90C019DED0C0B01F014F8E8
:101900008DED0E0B1FEDA90B53EC102B9DED0E0B67
:1019100051EC100B03F0B4FBCDE910019DED120B5F
:1019200053EC102B9DED100B51EC100B03F0D2F982
:101930009FED630B53EC102BCDE914019DED140BBF
:1019400051EC100B03F0C4FA9FED5D0B53EC102B20
:10195000CDE916019DED160B51EC100B02F0DAFFEC
:10196000CDE918019DED180B51EC100B02F0F8FEBB
:101970002A902A9803F06EFCCDE910019DED100B22
:1019800000F0F2FB8DED120B9FED480B53EC102B8A
:101990009DED120B51EC100B03F09CF99FED450BE4
:1019A00053EC102BCDE914019DED140B51EC100BF1
:1019B00002F0B0FF9FED3D0B53EC102BCDE916016B
:1019C0009DED160B51EC100B03F082FACDE91801D6
:1019D0009DED180B51EC100B03F024F9C0B21F90D1
:1019E0009DED290AB5EEC00AF1EE10FA5DDD1F98F3
:1019F0001A9000EBD0704010139003F040F9CDE93D
:101A00001601299803F026FCCDE90C011E9803F07D
:101A10004DF9CDE902019DED020B00F0BDFE8DED0B
:101A2000040B1FEDF00B53EC102B9DED040B51EC50
:101A3000100B03F04FF9CDE90801289803F00AFCD8
:101A4000CDE906019DED080B53EC102B9DED060B27
:101A500051EC100B03F014FBCDE90A019DED0C0BCA
:101A600053EC102B9DED0A0B51EC100B02F052FFC2
:101A7000CDE90E019DED0E0B00F022FD8DED100B5A
:101A80009FED0A0B53EC102B9DED100B51EC100B3E
:101A900003F020F99FED070B53EC102BCDE9120159
:101AA0009DED120B51EC100B0EE025E00000000044
:101AB000008066404AD8124DFB21094000000020FA
:101AC000000000000000A94002F024FFCDE914014D
:101AD0009DED160B53EC102B9DED140B51EC100BE0
:101AE00003F0CEFACDE918019DED180B51EC100B67
:101AF00003F098F8C0B220909DED290AB5EEC00A17
:101B0000F1EE10FA7DD21F981A9000EBD0704010C1
:101B1000139003F0B4F8CDE91601299803F09AFB6D
:101B2000CDE90A011E9803F0C1F8CDE900019DED51
:101B3000000B00F031FE8DED020B9FEDFE0B53EC20
:101B4000102B9DED020B51EC100B03F0C3F8CDE907
:101B50000601289803F07EFBCDE904019DED060BFC
:101B600053EC102B9DED040B51EC100B03F088FA95
:101B7000CDE908019DED0A0B53EC102B9DED080BF0
:101B800051EC100B02F0C6FECDE90C019DED0C0BE3
:101B900000F096FC8DED0E0B1FED3C0B53EC102B63
:101BA0009DED0E0B51EC100B03F094F81FED3F0B65
:101BB00053EC102BCDE910019DED100B51EC100BE7
:101BC00002F0A8FE1FED470B53EC102BCDE91201DC
:101BD0009DED120B51EC100B02F0F4FDCDE9140158
:101BE0009DED160B53EC102B9DED140B51EC100BCF
:101BF00003F046FACDE918019DED180B51EC100BDE
:101C000000E003E003F00EF8C0B220909DED290A39
:101C1000B5EEC00AF1EE10FA08D11F981A9000EB49
:101C2000D0704010C0F15A00C0B22090C3491F9834
:101C30000871209888701E9808709DED320AB8EEE1
:101C4000C00A8DED290A9DED330AB8EEC00A8DED6C
:101C5000280A3498404200EE100AB8EEC00A8DED12
:101C6000270A9DED270AB5EEC00AF1EE10FA32DD23
:101C70009DED280ADDED270A80EE201A8DED111A60
:101C8000119803F0E7FACDE912019DED120B00F077
:101C900017FC8DED140B1FED7B0B53EC102B9DED02
:101CA000140B51EC100B03F015F81FED7E0B53ECE9
:101CB000102BCDE916019DED160B51EC100B02F027
:101CC00029FECDE918019DED180B51EC100B02F027
:101CD000A9FFC0B21B909DED270AB5EEC00AF1EE38
:101CE00010FA3ED29DED280A9DED271AC0EE010A9A
:101CF000CDED0F0A0F9803F0ADFACDE910019DED7F
:101D0000100B00F0DDFB8DED120B1FED980B53EC6B
:101D1000102B9DED120B51EC100B02F0DBFF1FEDB1
:101D20009B0B53EC102BCDE914019DED140B51ECE2
:101D3000100B02F0EFFD1FEDA30B53EC102BCDE9C0
:101D400016019DED160B51EC100B02F03BFDCDE999
:101D500018019DED180B51EC100B02F063FFC0B29F
:101D60001B909DED270AB5EEC00AF1EE10FA01D1E5
:101D70005A201B909DED290A20EE000ADDED280A6D
:101D800000EEA00ADDED270A00EEA00A8DED0B0A99
:101D90000B9803F05FFACDE90C019DED0C0B00F000
:101DA000C3FD8DED0E0B9FED630B53EC102B9DEDE2
:101DB0000E0B51EC100B03F063F9CDE912019DED10
:101DC000290A20EE000ADDED280A00EEA00ADDED6A
:101DD000270A00EEA00A8DED0B0A0B9803F03AFAE1
:101DE000CDE90C019DED0C0B00F09EFD8DED0E0B71
:101DF0009FED500B53EC102B9DED0E0B51EC100B87
:101E000003F03EF9CDE910019DED120B53EC102BC0
:101E10009DED100B51EC100B02F05CFF1FEDD80B89
:101E200053EC102BCDE914019DED140B51EC100B6C
:101E300003F04EF81FEDDE0B53EC102BCDE916012D
:101E40009DED160B51EC100B02F064FDCDE918016D
:101E50009DED180B51EC100B02F082FC2A902A9891
:101E600003F0F8F9CDE910019DED100B00F07CF9BD
:101E70008DED120B1FEDF30B53EC102B9DED120BA0
:101E800051EC100B02F026FF1FEDF60B53EC102B5C
:101E9000CDE914019DED140B51EC100B02F03AFD4D
:101EA0009FED270B53EC102BCDE916019DED160B82
:101EB00051EC100B03F00CF8CDE918019DED180B57
:101EC00051EC100B02F0AEFEC0B21C909DED290A41
:101ED000B5EEC00AF1EE10FA7DDD1C981A9000EB09
:101EE000D0704010139002F0CAFECDE91601299877
:101EF00003F0B0F9CDE90C011B9802F0D7FECDE953
:101F000002019DED020B00F047FC8DED040B9FEDEF
:101F1000090B53EC102B9DED040B51EC100B02F050
:101F2000D9FECDE90801289803F094F9CDE906011E
:101F30000AE0000000000000000020400000002037
:101F400000000000008066409DED080B53EC102B54
:101F50009DED060B51EC100B03F092F8CDE90A0150
:101F60009DED0C0B53EC102B9DED0A0B51EC100B5F
:101F700002F0D0FCCDE90E019DED0E0B00F0A0FAB1
:101F80008DED100B1FED120B53EC102B9DED100B74
:101F900051EC100B02F09EFE9FED630B53EC102BE7
:101FA000CDE912019DED120B51EC100B02F0B2FCC9
:101FB000CDE914019DED160B53EC102B9DED140B88
:101FC00051EC100B03F05CF8CDE918019DED180BF6
:101FD00051EC100B00E003E002F024FEC0B21D90B3
:101FE0009DED290AB5EEC00AF1EE10FA7DD21C98DB
:101FF0001A9000EBD0704010139002F040FECDE933
:102000001601299803F026F9CDE90A011B9802F080
:102010004DFECDE900019DED000B00F0BDFB8DED07
:10202000020B1FED3C0B53EC102B9DED020B51EC02
:10203000100B02F04FFECDE90601289803F00AF9D3
:10204000CDE904019DED060B53EC102B9DED040B27
:1020500051EC100B03F014F8CDE908019DED0A0BCB
:1020600053EC102B9DED080B51EC100B02F052FCC1
:10207000CDE90C019DED0C0B00F022FA8DED0E0B5D
:102080001FED510B53EC102B9DED0E0B51EC100B73
:1020900002F020FE9FED240B53EC102BCDE9100134
:1020A0009DED100B51EC100B02F034FC1FED5C0B9E
:1020B00053EC102BCDE912019DED120B51EC100BDE
:1020C00002F080FBCDE914019DED160B53EC102BB3
:1020D0009DED140B51EC100B02F0D2FFCDE918016D
:1020E0009DED180B51EC100B00E003E002F09AFD9F
:1020F000C0B21D909DED290AB5EEC00AF1EE10FAAE
:1021000008D11C981A9000EBD0704010C0F15A0012
:10211000C0B21D9006491C9848711D98C8701B9844
:1021200048702FB000BD00004AD8124DFB21094075
:102130000000002003B401984100009850EAC1203B
:1021400018BF04204A0D18BF40F0010040F2FF7292
:10215000B2EB515F08BF40F00200012808BF052024
:1021600002B070470000000010B5B94A2DED020B17
:102170002DED0C8B82B00F9921F000409FEDB6CB76
:1021800090422CDBA0F140530E9AA3F17F631A43D7
:102190000FD0B349884202DC16D10E98A0B19DED54
:1021A0000E0B02B0BDEC0C8B02B0BDE8104000F08D
:1021B000E3BF0029C1BF9FEDAC0B02B0BDEC0C8B9F
:1021C00002B0C8BF10BD16E00120FEF757F802B0FC
:1021D000BDEC0C8B02B0BDE8104000F0D9BFA44AA2
:1021E0009FEDA59B9FEDA6AB90425EDAA6499FEDC1
:1021F000A8CB814208DBB0EE4C0AF0EE6C0A02B0CC
:10220000BDEC0C8B02B010BD9DED0E0B53EC102BF2
:1022100051EC100B02F05EFD41EC180B9E480621BC
:10222000B0EE480AF0EE680A784400F091FE53ECF4
:10223000182B51EC100B02F04DFD41EC1B0B974895
:10224000B0EE480AF0EE680A0421784400F080FEFF
:1022500053EC182B51EC100B02F03CFD53EC192BF6
:1022600002F0B0FA41EC100B51EC1B0B53EC102BAD
:1022700002F050FB41EC100B53EC102B9DED0E0BBC
:1022800051EC100B02F026FD53EC1A2B02F020FE4D
:102290009DED0E1B53EC112B02F01AFE53EC1C2B80
:1022A00002F016FE41EC100BA9E79FED7D8B9FED30
:1022B0007EBB9DED0E0B002953EC192B51EC100B3E
:1022C00052DA02F07FFA53EC182B02F003FD41ECD6
:1022D000180B77480621B0EE480AF0EE680A7844F9
:1022E00000F036FE53EC182B51EC100B02F0F2FC10
:1022F00041EC1D0B6F48B0EE480AF0EE680A04216D
:10230000784400F025FE53EC182B51EC100B02F032
:10231000E1FC53EC192B02F055FA41EC190B51EC8E
:10232000180B02F083F941EC180B53EC192B51EC0C
:102330001D0B02F0EFFA53EC182B02F0CBFC53EC20
:102340001A2B02F09DFE41EC100B51EC180B53ECD4
:10235000102B02F037FA53EC1B2B02F0BBFC53ECB2
:102360001C2B02F0B5FD6DE002F0B2FD53EC182B12
:1023700002F0B0FC41EC180B02F058F941EC1A0BDA
:1023800000208DED00AB00909DED000B51EC1A0B81
:1023900053EC102B02F016FA9DED000B41EC1C0BD8
:1023A00053EC102B51EC100B02F094FC53EC182B57
:1023B00002F08EFD53EC1C2B02F0ACFA41EC1C0B2E
:1023C0003D48B0EE480AF0EE680A0621784400F075
:1023D000BFFD53EC182B51EC100B02F07BFC41ECD1
:1023E0001D0B3648B0EE480AF0EE680A0421784426
:1023F00000F0AEFD53EC182B51EC100B02F06AFC10
:1024000053EC192B02F0DEF941EC100B51EC1D0BD3
:1024100053EC102B02F07EFA53EC1A2B02F05AFC0C
:1024200053EC1C2B02F0CEF941EC100B53EC102BAB
:102430009DED000B51EC100B02F0C4F953EC1B2B7B
:1024400002F048FC41EC100BD9E60000000000004F
:102450000000F03F00000000182D4454FB2109400B
:102460000000F07F000000000000000000000000FD
:102470000000E03F00000000000000000000F03F0E
:10248000075C143326A6913C0000603C000000006D
:10249000182D4454FB21F93F243100003231000053
:1024A000000000000000E03F0000000000000040CD
:1024B0006E3000007C300000802F00008E2F000066
:1024C00070B59B482DED020B2DED068B079D25F079
:1024D0000044A04218DC9748844202DC0AD10698E6
:1024E00040B19DED060BBDEC068B02B0BDE870401F
:1024F00000F042BE002DCCBF9FED8F0B9FED900BE7
:10250000BDEC068B02B070BD8F48A04215DD8F4830
:10251000A042D8BF4FF0FF3458DD9DED060B51ECC3
:10252000100BFFF707FE042808BF00F041FE9DEDE9
:10253000060BBDEC068B02B070BD9DED060B51EC99
:10254000100B00F0A7FECDE9060181489FED828BBC
:10255000A0423CDD8248A0421FDD00249FED82ABFB
:102560009DED060B53EC1A2B51EC100B02F02AF9DF
:102570009DED060B41EC190B53EC1A2B51EC100B93
:1025800002F0A8FB53EC182B02F07AFD53EC192B48
:1025900002F0C0F9CDE9060149E09DED060B0124EA
:1025A00053EC182B51EC100B02F00CF99DED060BBF
:1025B00041EC190B53EC182B51EC100B02F060FDA1
:1025C00053EC192B02F0A6F9CDE906012FE068487B
:1025D000A0421FDD02249FED689B9DED060B53EC8E
:1025E000192B51EC100B02F075FB53EC182B02F079
:1025F000E9F89DED060B41EC180B53EC192B51EC4F
:10260000100B02F03DFD53EC182B02F083F9CDE9DD
:1026100006010CE09DED060B032453EC102B9FEDFF
:10262000580B51EC100B02F075F9CDE906019DED48
:10263000060B53EC102B51EC100B02F04BFB41EC52
:10264000180B53EC182B02F045FB41EC190B4E48CC
:102650000621B0EE490AF0EE690A784400F078FCF1
:1026600053EC182B51EC100B02F034FB41EC180B1F
:102670004648B0EE490AF0EE690A0521784400F0B8
:1026800067FC53EC192B51EC100B02F023FB41ECCF
:10269000100B51EC180B53EC102B002C0EDA02F03F
:1026A00091F89DED061B53EC112B02F013FB9DEDF1
:1026B000061B53EC112B02F00BFC35E002F082F804
:1026C0009DED061B53EC112B02F004FB41EC100BAB
:1026D0002F48784400EBC40090ED001B51EC100B28
:1026E00053EC112B02F0CCFC9DED061B53EC112B8F
:1026F00002F0C6FC41EC100B2648784400EBC40005
:1027000090ED001B51EC100B53EC112B02F0E0FB91
:1027100041EC100B002DA2BFBDEC068B02B070BDCA
:1027200051EC100B02F010F841EC100B01E7000027
:10273000000010440000F07F182D4454FB21F93FA5
:10274000182D4454FB21F9BF0000DC3F0000203E5F
:102750000000F33F00000000000000000000F03F18
:102760000000E63F00000000000000000000004004
:102770000080034000000000000000000000F83F5F
:10278000000000000000F0BFAA2D0000602D000036
:10279000EA2C0000A22C000010B52F499FED2C1B45
:1027A0002DED020B84B0059820F000408842D8BF80
:1027B0009DED040B2DDD2949884209D1049840B9CB
:1027C0004FF00100FDF75AFD00F0E2FC06B010BD2D
:1027D00005DB9DED040B00F0CFFC06B010BD684694
:1027E0009DED040B00F0E0F810F0030004BF9DED38
:1027F000021B9DED000B0CD001280ED09DED021B9D
:102800009DED000B022817D0012000F01DFC06B042
:1028100010BD00F0E5FA06B010BD9DED021B9DED68
:10282000000B012000F010FC51EC100B01F08CFFAC
:1028300006B041EC100B10BD00F0D2FA51EC100BB9
:1028400001F082FF06B041EC100B10BD000000004B
:102850000000000000000000FB21E93F0000F07FC5
:1028600010B52F499FED2C1B2DED020B84B0059860
:1028700020F000408842DCBF00209DED040B32DDDB
:102880002849884209D1049840B94FF00100FDF76A
:10289000F5FC00F07DFC06B010BD05DB9DED040BE2
:1028A00000F06AFC06B010BD68469DED040B00F018
:1028B0007BF810F0030011D0012818D09DED021B09
:1028C0009DED000B02281AD000F08AFA51EC100B93
:1028D00001F03AFF06B041EC100B10BD9DED021B5C
:1028E0009DED000B012000F0AFFB06B010BD9DED8B
:1028F000021B9DED000B00F073FA06B010BD012025
:1029000000F0A2FB51EC100B01F01EFF06B041ECF1
:10291000100B10BD000000000000000000000000CF
:10292000FB21E93F0000F07F00B52DED048BB0EEF8
:10293000409AF0EE609A83B051EC190B02F0D4FA91
:1029400041EC180B18EE100A18EE901A8DED008B62
:10295000002818BF0120084320F00040C0F17F602C
:1029600000F1E040C00F14D019EE101A19EE900AD1
:102970008DED009B002918BF0121084320F0004085
:10298000C0F17F6000F1E040C00F04BF0120FDF7FF
:1029900075FCB0EE480A03B0F0EE680ABDEC048B9B
:1029A00000BD0000000000002DE9F14F04462DEDB0
:1029B000020B2DED088B8AB09FEDE70B80ED020B2B
:1029C000139EE74826F0004585420ADC9DED120B78
:1029D000002084ED000B0AB0BDEC088B03B0BDE80D
:1029E000F08FE0489FEDE0AB9FEDE1BBA84247DDF3
:1029F000E14F9FEDE39B9FEDE48B9DED120B53ECBC
:102A00001A2B51EC100B002E1CDD02F039FB41ECAF
:102A1000100BBD4208D053EC1B2B51EC100B02F0F5
:102A20002FFBC4E900010BE053EC192B51EC100B08
:102A300002F026FB53EC182B02F022FBC4E9000144
:102A40000120C8E701F0BEFE41EC100BBD4208D0EA
:102A500053EC1B2B51EC100B01F0B4FEC4E9000148
:102A60000BE053EC192B51EC100B01F0ABFE53ECC7
:102A7000182B01F0A7FEC4E900014FF0FF30AAE7D0
:102A8000C348A84279DB9DED120B51EC100B00F00E
:102A900001FC41EC180B9FEDC00B53EC102B02F026
:102AA00019F99FEDBF1B53EC112B01F08BFE02F0C7
:102AB00089F8074602F0E3F841EC190B53EC1A2BA6
:102AC00002F008F953EC182B02F002FA41EC180B53
:102AD00053EC1B2B51EC190B02F0FCF8DFF8C8A2E9
:102AE00041EC100B4FEA15580125FA4453EC102B1A
:102AF00051EC180B02F0C4FA032DC4E900013DD0DB
:102B0000C1F30A5005EB4511A8EB000011398142D1
:102B100034DA0AEB051BB0EE48AA9BED000BF0EE91
:102B200068AA53EC102B51EC190B02F0D3F841ECCE
:102B30001B0B51EC1A0B53EC1B2B02F0A1FA41ECCE
:102B4000180B51EC1A0B53EC182B02F099FA53ECBA
:102B50001B2B02F095FA9BED020B41EC1A0B53EC88
:102B6000102B51EC190B02F0B5F853EC1A2B02F0B4
:102B700087FA41EC100B6D1CB8E70EE0002EA8BFE1
:102B80003846BFF628AF94ED000B51EC100B01F066
:102B9000DBFDC4E9000178421DE7C6F3130040F4F1
:102BA000801EC6F30A50A0F2F530471100F01F0551
:102BB000C5F12000DDF848B008900020069007908D
:102BC0000520EC467949002D07EB0002794408BF47
:102BD00051F8221009D051F8223001EB8201AB40AC
:102BE0004A68089922FA01F11943A1FB0E26A1FBBC
:102BF0000B131A449A4234BF0123002303EB060847
:102C00000CEB8003D3E901A60E448E4234BF0121B0
:102C1000002192448A4411B1924502D903E09245C1
:102C200001D2012100E00021C3E901A641444CF892
:102C30002010011EA0F10100C4DC029800F1005038
:102C4000850F0298DDE903678000DDF8148002F04B
:102C500016F841EC1A0B304602F028F89FED541B91
:102C600053EC112B02F036F841EC1B0B384602F006
:102C70001DF89FED511B53EC112B02F02BF841EC8A
:102C8000180B404602F012F89FED4D1B53EC112B30
:102C900002F020F841EC190B51EC180B53EC192BF6
:102CA00001F090FD53EC1B2B01F08CFD53EC1A2B23
:102CB00001F088FDCDE90801002008909DED080B8A
:102CC00053EC1A2B51EC100B02F0DAF953EC1B2BDE
:102CD00002F0D6F953EC182B02F0D2F953EC192B71
:102CE00002F0F6F89FED381B53EC112B01F0F2FFC8
:102CF0009FED370B41EC180B53EC102B9DED080B9F
:102D000051EC100B01F0E6FF53EC182B01F05AFDCB
:102D10009FED310B41EC180B53EC102B9DED080B84
:102D200051EC100B01F0D6FF53EC182B01F04AFDCB
:102D300041EC100B139810F0004F06D06D4251EC8F
:102D4000100B01F001FD41EC100B284684ED000B47
:102D500041E600000000000000000000000000004C
:102D6000FB21E93F7CD9024000004054FB21F93FA0
:102D70003163621A61B4D03DFB21F93F00000000CD
:102D80000000601A61B4D03D7370032E8A19A33B12
:102D9000FB2139410000000083C8C96D305FE43F6A
:102DA000000000000000E03F7A290000C828000071
:102DB000000000000000103E000000000000103C79
:102DC000000000000000103A182D4454FB21F93D8A
:102DD0003326A611460B113C00000054FB21F93D9F
:102DE00010B52DED040B2DED088B82B0B0EE419A9D
:102DF000F0EE619A0B9820F000449FED4BABB4F1DC
:102E0000795F11DA9DED0A0B51EC100B01F0DAFE3F
:102E1000002801BFB0EE4A0AF0EE6A0A02B0BDEC2B
:102E2000088B04BF04B010BD9DED0A0B53EC102BB2
:102E300051EC100B01F04EFF41EC180B3C48062101
:102E4000B0EE480AF0EE680A784400F081F853ECDE
:102E5000182B51EC100B01F03DFF9DED0A0B41ECDE
:102E60001B0B53EC192B51EC100B01F033FF41EC11
:102E7000190B53EC1B2B51EC180B01F02BFF53ECEF
:102E8000192B02F0FDF89FED2C0B41EC190B53ECC4
:102E9000102B51EC180B01F01DFF41EC100B2848D2
:102EA000844210DA53EC192B51EC100B02F0E8F8C5
:102EB00053EC1A2B02F00CF841EC100B02B0BDECF5
:102EC000088B04B010BD1F48A042BCBF9FED1E1B65
:102ED0008DED001B06DBA4F5001001900020009092
:102EE0009DED001B51EC100B53EC112B02F0C8F8B8
:102EF0009DED000B41EC180B53EC102B51EC1A0B11
:102F000002F0BEF841EC1A0B53EC192B51EC180BE4
:102F100002F0B6F853EC1A2B01F0DAFF41EC100B7B
:102F2000CCE7000000000000000000000000F03FBF
:102F3000EC25000000000000000000000000E03F61
:102F40003333D33F0000E93F000000000000D23FD0
:102F500070B504462DED028B4D1E00EBC500B0EEA2
:102F6000408AF0EE608A90ED000B35F0060017D035
:102F700053EC182B51EC100B01F0ACFE41EC100B94
:102F80006D1E04EBC50090ED001B51EC100B53ECD3
:102F9000112B01F017FC41EC100B35F00600E7D1C6
:102FA000022D36D0042D1CD0062D1CBFBDEC028B8B
:102FB00070BD53EC182B51EC100B01F08BFE94ED0F
:102FC0000A1B53EC112B01F0FDFB53EC182B01F005
:102FD00081FE94ED081B53EC112B01F0F3FB41EC47
:102FE000100B53EC182B51EC100B01F073FE94ED09
:102FF000061B53EC112B01F0E5FB53EC182B01F0F1
:1030000069FE94ED040B53EC102B01F0DBFB41EC5B
:10301000100B53EC182B51EC100B01F05BFE94EDF0
:10302000021B53EC112B01F0CDFB53EC182B01F0DC
:1030300051FE94ED001B53EC112B01F0C3FBBDECD2
:10304000028B41EC100B70BD31B504462DED040B25
:103050002DED0A8BB0EE41BAF0EE61BA0B989DED02
:103060000A0B20F00040B0F1795F0DDA51EC100B43
:10307000FFF760F8042808BF00F09AF89DED0A0BEE
:10308000BDEC0A8B05B030BD53EC102B51EC100B8E
:1030900001F020FE41EC180B9DED0A0B53EC182BB0
:1030A00051EC100B01F016FE41EC190B2C48B0EE60
:1030B000480AF0EE680A05217844FFF749FF9FEDC2
:1030C0002ACBB0EE40AAF0EE60AA9CB353EC1C2BC6
:1030D00051EC190B01F0FEFD41EC1C0B53EC1A2BCB
:1030E00051EC190B01F0F6FD9FED210B41EC190B92
:1030F00053EC102B51EC1B0B01F0ECFD53EC192B96
:1031000001F0BEFF53EC182B01F0E4FD53EC1B2B38
:1031100001F0B6FF53EC1C2B01F0B2FF9DED0A1B32
:1031200053EC112B01F0D4FEBDEC0A8B05B041EC41
:10313000100B30BDFFE753EC1A2B51EC180B01F0CC
:10314000C9FD53EC1C2B01F03DFB53EC192B01F096
:10315000C1FD9DED0A1B53EC112B01F033FBE3E79E
:103160007424000000000000495555555555C5BF51
:10317000000000000000E03F10B553EC102B51ECB4
:10318000100B01F01FFB41EC100B10BD0000000004
:103190009FED050B10B553EC102B51EC100B01F00B
:1031A000B9FB41EC100B10BD000000000000000056
:1031B0009FED050B10B553EC102B51EC100B01F0EB
:1031C00089FD41EC100B10BD000000000000001054
:1031D00000BF704710B504466FF00400FDF79AFA7F
:1031E000E11704EB5171C1F3C701074A1170104692
:1031F000007800EB4001C1EBC0104FF6FF7101EA0F
:10320000C0000249088010BD2600002028000020D0
:1032100070B504464FF4077094FBF0F0C6B24FF45B
:10322000077094FBF0F100FB114085B205E04FF40C
:10323000077000F009F8701EC6B2002EF7D115B164
:10324000284600F001F870BD0146114A12884A4331
:103250004FF0E0235A6100229A611A46126942F047
:1032600001021A6100BF4FF0E022106900F0010274
:103270001AB100F48032002AF5D04FF0E022126932
:1032800022F001024FF0E0231A6100229A61704798
:103290002800002082B0CDE9000121F0004001901B
:1032A0009DED000B02B051EC100B70479CB001205B
:1032B0001B9006201A900020199018900620179055
:1032C000032016906420FFF785FFFDF7EFF84FF419
:1032D000165001F0E3F909216320FDF7B3FB4FF429
:1032E000FA60FFF795FF01F09DB9FE48008800F4F1
:1032F0000040002840D0FC480078312802D101204D
:10330000189036E0F8480078322802D10220189050
:103310002FE0F5480078332802D10320189028E0E8
:10332000F1480078342802D10420189021E0EE48BA
:103330000078352802D1052018901AE0EA48007874
:10334000362802D10620189013E0E7480078372885
:1033500002D1072018900CE0E3480078382802D109
:103360000820189005E0E0480078302801D10020BE
:1033700018900020DB490880DC4800780128B2D191
:103380000020DA4908701898022855D11B98FDF7DB
:1033900039F84B3015901B98FDF71EF817994843E4
:1033A00014901A98FDF72EF8473013901A98FDF7ED
:1033B00013F81799484312901B98FDF723F84730EC
:1033C00011901B98FDF708F81799484310901A9828
:1033D000FDF718F84B300F901A98FCF7FDFF17997E
:1033E000484300220E90DDE91410CDE90421CDE917
:1033F00006021346DDE911211398CDE90023CDE93A
:10340000021000220EA80BC8FDF7BCFC1B98401C44
:10341000C0B21B901A98401CC0B21A901B980D287D
:1034200001DB01201B901A980D2801DB01201A9066
:103430000120FFF7EDFE56E71898012859D11B9897
:10344000FCF7E0FF4B3015901B98FCF7C5FF179970
:103450004843404214901A98FCF7D4FF4B30139025
:103460001A98FCF7B9FF17994843404212901B98ED
:10347000FCF7C8FF4B3011901B98FCF7ADFF179974
:103480004843404210901A98FCF7BCFF4B300F9015
:103490001A98FCF7A1FF17994843404200220E906A
:1034A000DDE91410CDE90421CDE906021346DDE97A
:1034B00011211398CDE90023CDE9021000220EA8B6
:1034C0000BC8FDF75FFC1B98401CC0B21B901A98FC
:1034D000401CC0B21A901B980D2801DB01201B90E4
:1034E0001A980D2801DB01201A900120FFF790FEA9
:1034F000F9E6189808287CD1002019905AE219980A
:103500001C30019001F0BBFB9FED790B53EC102BAD
:10351000CDE902019DED020B51EC100B01F0DAFB3D
:103520009FED750B53EC102BCDE904019DED040BC1
:1035300051EC100B01F0EEF9CDE906019DED060B03
:10354000FFF78EF98DED080B9FED6D0B53EC102BF3
:103550009DED080B51EC100B01F0BCFB9FED6A0BCD
:1035600053EC102BCDE90A019DED0A0B51EC100B29
:1035700001F086FDCDE90C019DED0C0B51EC100B1B
:1035800001F020FB159019981C30019001F077FB99
:103590009FED570B53EC102BCDE902019DED020B73
:1035A00051EC100B01F096FB9FED530B53EC102BDD
:1035B000CDE904019DED040B51EC100B01F0AAF9CB
:1035C000CDE906019DED060BFFF7E6F88DED080B42
:1035D0009FED4B0B53EC102B9DED080B51EC100B9A
:1035E00001F078FB9FED4A0B53EC102BCDE90A015B
:1035F00000E0FCE39DED0A0B51EC100B01F040FDE7
:10360000CDE90C019DED0C0B51EC100B01F0DAFA39
:1036100014901998C0F11C00019001F030FB9FED4F
:10362000340B53EC102BCDE902019DED020B51EC54
:10363000100B01F04FFB9FED300B53EC102BCDE93D
:1036400004019DED040B51EC100B01F063F9CDE981
:1036500006019DED060BFFF703F98DED080B9FEDBD
:10366000280B53EC102B9DED080B51EC100B01F0C7
:1036700031FB9FED250B53EC102BCDE90A019DED9D
:103680000A0B51EC100B01F0FBFCCDE90C019DED98
:103690000C0B51EC100B01F095FA13901998C0F136
:1036A0001C00019001F0EBFA9FED110B53EC102B75
:1036B000CDE902019DED020B51EC100B01F00AFB6C
:1036C0009FED0D0B53EC102BCDE904019DED040B88
:1036D00051EC100B01F01EF9CDE906019DED060B32
:1036E0001AE00000300000204400002024000020E8
:1036F0004AD8124DFB2109400000000000806640BE
:103700000000000000805140000000000000414027
:103710000000000000004F40FFF73EF88DED080B61
:103720001FED090B53EC102B9DED080B51EC100B0A
:1037300001F0D0FA1FED0A0B53EC102BCDE90A0172
:103740009DED0A0B51EC100B01F0C2FBCDE90C0111
:103750009DED0C0B51EC100B01F034FA12901998FE
:103760001C30019001F08BFA1FED1F0B53EC102B56
:10377000CDE902019DED020B51EC100B01F0AAFA0C
:103780001FED230B53EC102BCDE904019DED040B31
:1037900051EC100B01F0BEF8CDE906019DED060BD2
:1037A000FFF75EF88DED080B1FED2B0B53EC102B84
:1037B0009DED080B51EC100B01F08CFA1FED2E0B58
:1037C00053EC102BCDE90A019DED0A0B51EC100BC7
:1037D00001F07EFBCDE90C019DED0C0B51EC100BC3
:1037E00001F0F0F9119019981C30019001F047FA9E
:1037F0001FED410B53EC102BCDE902019DED020BA7
:1038000051EC100B01F066FA1FED450B53EC102B39
:10381000CDE904019DED040B51EC100B01F07AF899
:10382000CDE906019DED060BFEF7B6FF8DED080B09
:103830001FED4D0B53EC102B9DED080B51EC100BB5
:1038400001F048FA1FED4E0B53EC102BCDE90A01A5
:103850009DED0A0B51EC100B01F03AFBCDE90C0188
:103860009DED0C0B51EC100B01F0ACF91090199878
:10387000C0F11C00019001F002FA1FED630B53EC44
:10388000102BCDE902019DED020B51EC100B01F064
:1038900021FA1FED670B53EC102BCDE904019DEDD0
:1038A000040B51EC100B01F035F8CDE906019DED4C
:1038B000060BFEF7D5FF8DED080B1FED6F0B53ECDC
:1038C000102B9DED080B51EC100B01F003FA1FEDCE
:1038D000720B53EC102BCDE90A019DED0A0B51EC54
:1038E000100B01F0F5FACDE90C019DED0C0B51EC3C
:1038F000100B01F067F90F901998C0F11C000190AE
:1039000001F0BDF91FED860B53EC102BCDE9020140
:103910009DED020B51EC100B01F0DCF91FED8A0B51
:1039200053EC102BCDE904019DED040B51EC100B71
:1039300000F0F0FFCDE906019DED060BFEF72CFF30
:103940008DED080B1FED920B53EC102B9DED080B2A
:1039500051EC100B01F0BEF91FED930B53EC102B43
:10396000CDE90A019DED0A0B51EC100B01F088FB2B
:10397000CDE90C019DED0C0B51EC100B01F022F97F
:103980000E904B23DDE913121598CDE90523049120
:103990000790DDE91110CDE90031CDE902034B219B
:1039A0000EA80DC8FDF7EEF91420FFF731FC1998A9
:1039B000401C199019981E28FFF6A1AD1E201990E1
:1039C0003EE219981C30019001F059F91FEDB80B37
:1039D00053EC102BCDE902019DED020B51EC100BC5
:1039E00001F078F91FEDBC0B53EC102BCDE904016D
:1039F0009DED040B51EC100B00F08CFFCDE906019E
:103A00009DED060BFEF72CFF8DED080B1FEDC40B93
:103A100053EC102B9DED080B51EC100B01F05AF9F3
:103A20001FEDC70B53EC102BCDE90A019DED0A0BDE
:103A300051EC100B01F024FBCDE90C019DED0C0BBA
:103A400051EC100B01F0BEF8159019981C30019044
:103A500001F015F91FEDDA0B53EC102BCDE9020143
:103A60009DED020B51EC100B01F034F91FEDDE0B54
:103A700053EC102BCDE904019DED040B51EC100B20
:103A800000F048FFCDE906019DED060BFEF784FE30
:103A90008DED080B1FEDE60B53EC102B9DED080B85
:103AA00051EC100B01F016F91FEDE70B53EC102B46
:103AB000CDE90A019DED0A0B51EC100B01F0E0FA83
:103AC000CDE90C019DED0C0B51EC100B01F07AF8D7
:103AD00014901998C0F11C00019001F0D0F81FED6E
:103AE000FC0B53EC102BCDE902019DED020B51ECC8
:103AF000100B01F0EFF89FEDFE0B53EC102BCDE90E
:103B000004019DED040B51EC100B00F003FFCDE917
:103B100006019DED060BFEF7A3FE8DED080B9FED54
:103B2000F60B53EC102B9DED080B51EC100B01F034
:103B3000D1F89FEDF30B53EC102BCDE90A019DED6D
:103B40000A0B51EC100B01F09BFACDE90C019DED35
:103B50000C0B51EC100B01F035F813901998C0F1D3
:103B60001C00019001F08BF89FEDE70B53EC102B3C
:103B7000CDE902019DED020B51EC100B01F0AAF80A
:103B80009FEDDB0B53EC102BCDE904019DED040BF5
:103B900051EC100B00F0BEFECDE906019DED060BC9
:103BA000FEF7FAFD8DED080B9FEDD30B53EC102BB8
:103BB0009DED080B51EC100B01F08CF89FEDD40B30
:103BC00053EC102BCDE90A019DED0A0B51EC100BC3
:103BD00001F07EF9CDE90C019DED0C0B51EC100BC1
:103BE00000F0F0FF129019981C30019001F047F896
:103BF0009FEDC50B53EC102BCDE902019DED020B9F
:103C000051EC100B01F066F89FEDB90B53EC102B43
:103C1000CDE904019DED040B51EC100B00F07AFE90
:103C2000CDE906019DED060BFEF71AFE8DED080BA2
:103C30009FEDB10B53EC102B9DED080B51EC100BCD
:103C400001F048F89FEDAE0B53EC102BCDE90A01C3
:103C50009DED0A0B51EC100B01F03AF9CDE90C0186
:103C60009DED0C0B51EC100B00F0ACFF119019986E
:103C70001C30019001F003F89FEDA30B53EC102BC7
:103C8000CDE902019DED020B51EC100B01F022F881
:103C90009FED970B53EC102BCDE904019DED040B28
:103CA00051EC100B00F036FECDE906019DED060B40
:103CB000FEF772FD8DED080B9FED8F0B53EC102B73
:103CC0009DED080B51EC100B01F004F89FED900BEB
:103CD00053EC102BCDE90A019DED0A0B51EC100BB2
:103CE00001F0F6F8CDE90C019DED0C0B51EC100B39
:103CF00000F068FF10901998C0F11C00019000F0CE
:103D0000BEFF9FED810B53EC102BCDE902019DED21
:103D1000020B51EC100B00F0DDFF9FED750B53EC27
:103D2000102BCDE904019DED040B51EC100B00F0BC
:103D3000F1FDCDE906019DED060BFEF791FD8DED40
:103D4000080B9FED6D0B53EC102B9DED080B51EC08
:103D5000100B00F0BFFF9FED6A0B53EC102BCDE969
:103D60000A019DED0A0B51EC100B01F0B1F8CDE901
:103D70000C019DED0C0B51EC100B00F023FF0F908C
:103D80001998C0F11C00019000F079FF9FED5E0BC7
:103D900053EC102BCDE902019DED020B51EC100B01
:103DA00000F098FF9FED520B53EC102BCDE904016E
:103DB0009DED040B51EC100B00F0ACFDCDE90601BC
:103DC0009DED060BFEF7E8FC8DED080B9FED4A0B11
:103DD00053EC102B9DED080B51EC100B00F07AFF0B
:103DE0009FED4B0B53EC102BCDE90A0100E087E26D
:103DF0009DED0A0B51EC100B01F042F9CDE90C01DD
:103E00009DED0C0B51EC100B00F0DCFE0E904B23E3
:103E1000DDE913121598CDE9052304910790DDE93A
:103E20001110CDE90031CDE902034B210EA80DC8D8
:103E3000FCF7A8FF1420FFF7EBF91998401E199022
:103E4000199810F11E0F3FF7BCAD6FF01D001990CF
:103E500052E219981C30019000F011FF9FED2A0BDF
:103E600053EC102BCDE902019DED020B51EC100B30
:103E700000F030FF9FED1E0B53EC102BCDE9040139
:103E80009DED040B51EC100B00F044FDCDE9060153
:103E90009DED060BFEF7E4FC8DED080B9FED160B78
:103EA00053EC102B9DED080B51EC100B00F012FFA2
:103EB0009FED130B53EC102BCDE90A019DED0A0B7E
:103EC00051EC100B01F0DCF8CDE90C019DED0C0B71
:103ED00051EC100B00F076FE159019981C300190F3
:103EE00000F0CDFE9FED080B53EC102B14E000000A
:103EF000000000000080664000000000008051408B
:103F000000000000000041404AD8124DFB2109404A
:103F10000000000000004F40CDE902019DED020BC2
:103F200051EC100B00F0D6FE1FED0F0B53EC102BD5
:103F3000CDE904019DED040B51EC100B00F0EAFCFF
:103F4000CDE906019DED060BFEF726FC8DED080B75
:103F50001FED170B53EC102B9DED080B51EC100BC4
:103F600000F0B8FE1FED160B53EC102BCDE90A0143
:103F70009DED0A0B51EC100B01F082F8CDE90C011C
:103F80009DED0C0B51EC100B00F01CFE14901998D9
:103F9000C0F11C00019000F072FE1FED250B53ECE8
:103FA000102BCDE902019DED020B51EC100B00F03E
:103FB00091FE1FED310B53EC102BCDE904019DED6B
:103FC000040B51EC100B00F0A5FCCDE906019DEDB2
:103FD000060BFEF745FC8DED080B1FED390B53EC7E
:103FE000102B9DED080B51EC100B00F073FE1FED34
:103FF0003C0B53EC102BCDE90A019DED0A0B51EC63
:10400000100B01F03DF8CDE90C019DED0C0B51ECCE
:10401000100B00F0D7FD13901998C0F11C0001900F
:1040200000F02DFE1FED480B53EC102BCDE90201E3
:104030009DED020B51EC100B00F04CFE1FED540BEC
:1040400053EC102BCDE904019DED040B51EC100B4A
:1040500000F060FCCDE906019DED060BFEF79CFB30
:104060008DED080B1FED5C0B53EC102B9DED080B39
:1040700051EC100B00F02EFE1FED5B0B53EC102BE0
:10408000CDE90A019DED0A0B51EC100B00F020FF69
:10409000CDE90C019DED0C0B51EC100B00F092FDE5
:1040A000129019981C30019000F0E9FD1FED6A0B89
:1040B00053EC102BCDE902019DED020B51EC100BDE
:1040C00000F008FE1FED760B53EC102BCDE9040138
:1040D0009DED040B51EC100B00F01CFCCDE906012A
:1040E0009DED060BFEF7BCFB8DED080B1FED7E0B67
:1040F00053EC102B9DED080B51EC100B00F0EAFD7A
:104100001FED810B53EC102BCDE90A019DED0A0B3D
:1041100051EC100B00F0DCFECDE90C019DED0C0B19
:1041200051EC100B00F04EFD119019981C300190CD
:1041300000F0A5FD1FED8C0B53EC102BCDE9020117
:104140009DED020B51EC100B00F0C4FD1FED980B20
:1041500053EC102BCDE904019DED040B51EC100B39
:1041600000F0D8FBCDE906019DED060BFEF714FB30
:104170008DED080B1FEDA00B53EC102B9DED080BE4
:1041800051EC100B00F0A6FD1FED9F0B53EC102B14
:10419000CDE90A019DED0A0B51EC100B00F098FEE1
:1041A000CDE90C019DED0C0B51EC100B00F00AFD5C
:1041B00010901998C0F11C00019000F060FD1FEDF7
:1041C000AE0B53EC102BCDE902019DED020B51EC2F
:1041D000100B00F07FFD1FEDBA0B53EC102BCDE957
:1041E00004019DED040B51EC100B00F093FBCDE9A5
:1041F00006019DED060BFEF733FB8DED080B1FED61
:10420000C20B53EC102B9DED080B51EC100B00F082
:1042100061FD1FEDC50B53EC102BCDE90A019DED9F
:104220000A0B51EC100B00F053FECDE90C019DED93
:104230000C0B51EC100B00F0C5FC0F901998C0F15D
:104240001C00019000F01BFD1FEDD10B53EC102B57
:10425000CDE902019DED020B51EC100B00F03AFD8F
:104260001FEDDD0B53EC102BCDE904019DED040B8C
:1042700051EC100B00F04EFBCDE906019DED060B55
:10428000FEF78AFA8DED080B1FEDE50B53EC102BB2
:104290009DED080B51EC100B00F01CFD1FEDE40B25
:1042A00053EC102BCDE90A019DED0A0B51EC100BDC
:1042B00000F0E6FECDE90C019DED0C0B51EC100B6E
:1042C00000F080FC0E904B23DDE913121598CDE928
:1042D000052304910790DDE91110CDE90031CDE906
:1042E00002034B210EA80DC8FCF74CFD1420FEF76D
:1042F0008FFF1998401C1990199800285ADAA8E5E0
:104300001898042857D11B98FCF77CF84B3015906F
:104310001B98FCF761F817994843404214901A988B
:10432000FCF770F84B3013901A98FCF755F8179972
:104330004843404212901B98FCF764F84B301190B0
:104340001B98FCF749F81799484310901A98FCF706
:1043500059F84B300F901A98FCF73EF817994843DC
:1043600000220E90DDE91410CDE90421CDE906020A
:104370001346DDE911211398CDE90023CDE90210A0
:1043800000220EA80BC8FCF7FDFC1B98401CC0B215
:104390001B901A98401CC0B21A901B980D2801DB84
:1043A00001201B901A980D2801DB01201A90012092
:1043B000FEF72EFF36E11898032857D11B98FCF71B
:1043C00021F84B3015901B98FCF706F817994843D5
:1043D00014901A98FCF716F84B3013901A98FBF7C4
:1043E000FBFF1799484312901B98FCF70BF84B30D2
:1043F00011901B98FBF7F0FF17994843404210902B
:104400001A98FBF7FFFF4B300F901A98FBF7E4FF69
:1044100017994843404200220E90DDE91401CDE98E
:104420000420CDE906121346DDE911211398CDE9E8
:104430000023CDE9021000220EA80BC8FCF7A2FC55
:104440001B98401CC0B21B901A98401CC0B21A9016
:104450001B980D2801DB01201B901A980D2801DB09
:1044600001201A900120FEF7D3FEDBE01898052802
:1044700005D101206C490860FEF7CAFED2E0189809
:10448000062854D11B98FBF7A7FF169948431590AF
:104490001B98FBF7B7FF4B3014901A98FBF79CFF63
:1044A0001699484313901A98FBF7ACFF47301290C7
:1044B0001B98FBF791FF1699484311901B98FBF747
:1044C000A1FF473010901A98FBF786FF16994843D2
:1044D0000F901A98FBF796FF4B300E900023DDE902
:1044E00013211598CDE90423CDE90610DDE910125A
:1044F00012988DE80E0003901846DDE90E12FCF7C5
:1045000041FC1B98401CC0B21B901A98401CC0B2C2
:104510001A901B980D2801DB01201B901A980D287A
:1045200001DB01201A900120FEF772FE7AE0189854
:10453000072858D11B98FBF74FFF16994843404274
:1045400015901B98FBF75EFF4B3014901A98FBF701
:1045500043FF16994843404213901A98FBF752FFC5
:104560004B3012901B98FBF737FF16994843404297
:1045700011901B98FBF746FF473010901A98FBF7F5
:104580002BFF1699484340420F901A98FBF73AFFC9
:1045900047300E900023DDE913211598CDE904235F
:1045A000CDE90610DDE9101212988DE80E00039097
:1045B0001846DDE90E12FCF7E5FB1B98401CC0B263
:1045C0001B901A98401CC0B21A901B980D2801DB52
:1045D00001201B901A980D2801DB01201A90012060
:1045E000FEF716FE1EE01898E0B900204B2104905B
:1045F000CDE905010790084600214B23CDE90031A4
:104600000B460A46CDE902104B210020FCF7BAFB0D
:1046100001201B9006201A90002003490860012009
:10462000FEF7F6FDFEF761BEA002404200B52DED9B
:10463000048B83B041EC190B00F056FC41EC180BD5
:1046400018EE100A18EE901A8DED008B002818BF96
:104650000120084320F00040C0F17F6000F1E040FD
:10466000C00F14D019EE101A19EE900A8DED009BB0
:10467000002918BF0121084320F00040C0F17F60ED
:1046800000F1E040C00F04BF0120FBF7F7FD51EC43
:10469000180B03B0BDEC048B00BD000010B588B052
:1046A000044601210846FBF741FF01211020FBF7DA
:1046B0005DFF072209212248FBF767FE07220A2136
:1046C0001F48FBF762FE4FF4C060069002208DF891
:1046D0001C008DF81D0000208DF81E0001208DF8B3
:1046E0001F0006A91648FBF708FE02940020ADF84B
:1046F0000C00ADF80E00ADF81000ADF814000C2061
:10470000ADF8120002A90F48FCF7CAFA01210D48C2
:10471000FCF76AFA012240F225510A48FCF79AFA9E
:1047200025208DF8040003208DF805008DF8060083
:1047300001208DF8070001A8FBF77CFE08B010BD32
:10474000000002400010014081F00041704780F0FD
:104750000040704721F00041704720F00040704752
:1047600021F00042A2F16052B2F5801F01F0004337
:1047700028BFD2F17F6C0BD95FEA001C43EAC2026A
:1047800042EB507018BF704728BF20F001007047FF
:10479000B2F5801FBCBF184670474FEA410C1CF5AC
:1047A000001F02D2084600F0CBBD70B500F03CFB04
:1047B00000000089FFF7F6BF4FF00040A0F5800031
:1047C0007047000010B591EA030F48BF83F0004323
:1047D00000F15E84841A71EB030C05D2121943EBCD
:1047E0000C03001B61EB0C01DFF824E14FEA1154CC
:1047F000A4EB135C1EEA430F18BF9EEA445F73D01C
:1048000023EA0E03DCF1200E21EA045143F4801365
:1048100032D322FA0CFE10EB0E0023FA0CFE41EB11
:104820000E01CCF1200E03FA0EFE10EB0E0051F13A
:104830000001B1F5801FCCF1200E32D201EB045102
:1048400012FA0EF2BDE8104058BF7047401C38BF46
:104850005FEA420218BF7047002814BF20F0010031
:1048600041F100014FEA410313F5001F38BF7047C3
:10487000A1F1C04100F026BB012A43EB0302ACF1D9
:10488000200CDCF11F0E32BF4FF0000E23FA0CF3A8
:1048900010EB030041EB0451B4EB115FD0D0A1EB5E
:1048A000045101F5801149085FEA300001EB045121
:1048B0000ED350F1000038BF12FA0EFE08D1BDE849
:1048C0001040C9E7401C38BF5FEA4202CAD1C3E7C3
:1048D000BDE810404FEA410313F5001F38BF704791
:1048E000A1F1C04100F0EEBA9EEA445F08D011EA9F
:1048F0005E0FBDE8104004BF01F00041002070478A
:10490000BDE8104070B500F08FFA00BF64FBBE3EFA
:104910000000E0FF2DE9C04130B4DFF8A0C23CEA5E
:10492000111418BF3CEA131400F0EC8081EA03056F
:104930001CEA111444EAD57418BF1CEA131500F0E0
:10494000C780A4EB05044FF0004545EAC12145EAC4
:10495000C32341EA505143EA525304F17F74994210
:1049600004F500344FEAC0204FEAC22208BF90424B
:1049700000F09C804FEA13650FF24016765D4FEA17
:10498000134506FB05F7C7F1807706FB07F74FEAEB
:10499000D737A7FB03687642C8F58038A7FB06CE59
:1049A00038BFA8F1010807FB08E64FF0000EA6FB90
:1049B000028CE6FB03CEDCF1000CCEF1004E38BFDA
:1049C000AEF1010EA6FB0C584FF000074FF00005AA
:1049D000E6FB0E87A1FB08C6A0FB07CE16EB0E0672
:1049E00045F10005E1FB076515F1E04E7EBFA4F53A
:1049F00080345FEA46066D4116F1800745F10005F7
:104A00004FEA17274FEA066647EA0567A6F1DE4632
:104A1000B6F1805F4FEA15251FD9384624F0010C06
:104A200005EBC471BCF1FE6F01EB0C1102D8F0BCB8
:104A3000BDE8008124425CBF01F5801E9EEAC47F70
:104A400002D4F0BCBDE80081244238D4F0BCA1F10E
:104A5000C041BDE8004100F035BA4FEAD22242EA37
:104A600043524FEAD323A7FB02864FEAD02040EA05
:104A7000415007FB03661EEA0E0F4FEAD12105FBEA
:104A8000026658BFA6EB0056B6EB00564FEA520E30
:104A90004EEAC37E18EB0E0E56EB530EBDD518EB47
:104AA00002085E417F1C55F10005B6E74FF4801502
:104AB0004FF000074FF000064FF00008ADE7F0BCE4
:104AC0004FF0000001F1C04101F00041BDE800815C
:104AD00011EA0C1F0CEA131500D00CE013EA0C1FAE
:104AE00000F025804FF00000F0BC81EA030101F0E6
:104AF0000041BDE80081F0BCBDE8004181EA03014E
:104B000000F0E0B9F0BCBDE8004170B500F08CF9F0
:104B1000097EFC3E00F007B881EA03014FF0000077
:104B200001F00041704781EA030100F0CBB9F0BC0D
:104B3000BDE800414FF0000021497047FFFDFBF93F
:104B4000F7F5F4F2F0EEEDEBE9E8E6E4E3E1E0DEC0
:104B5000DDDBDAD8D7D5D4D3D1D0CFCDCCCBCAC832
:104B6000C7C6C5C4C2C1C0BFBEBDBCBBBAB9B8B759
:104B7000B6B5B4B3B2B1B0AFAEADACABAAA9A8A84C
:104B8000A7A6A5A4A3A3A2A1A09F9F9E9D9C9C9B1A
:104B90009A999998979796959594939392919190C5
:104BA0008F8F8E8E8D8C8C8B8B8A89898888878756
:104BB0008685858484838382828181800000FF07CB
:104BC0000000F87F4FEA41034FEA5353A3F5806397
:104BD000D3F11E03C8BFD3F1210C0CDD4FF000420E
:104BE00042EAC12242EA505232FA03FC8CEAE17CEA
:104BF000ACEBE1707047102BC4BF0020704703F589
:104C0000787CBCF1FF3F04D06FF0004282EA2100C3
:104C1000704770B500F008F9499224800020704771
:104C2000F2E700004FEA1153A3F58063D3F11E03AE
:104C3000A8BFD3F1200C08DB4FF0004242EAC122AA
:104C400052EA505232FA03F0704709420BD4102B4B
:104C5000C4BF0020704703F5787CBCF1FF3F05D04E
:104C60004FF0FF3070474FF00000704770B500F014
:104C7000DBF800BF4992248000207047F0E710F075
:104C8000004248BF4042B0FA80F310FA03F10AD064
:104C9000C3F11D0303F580634FEA415002EB035259
:104CA00002EBD12170474FF000007047B0FA80F35B
:104CB00010FA03F10AD0C3F11D0303F580634FEA34
:104CC00041504FEA035202EBD12170474FF00000F0
:104CD00070470000DFF848C170B51CEA111E1EBF06
:104CE0001CEA13159EEA0C0F95EA0C0F00F06F807A
:104CF00081EA030423EA4C134EEAD47E21EA4C11E4
:104D000041F4801143F48013AE44A1FB024CA0FB9C
:104D10000365AEF17F7E361955EB0C05A1FB034C04
:104D20004CF10003A0FB021C16EB0C06654153F18D
:104D30000003094218BF46F0010613F4007F0BD1AF
:104D40004FEA03314FEA0530340341EA155140EA96
:104D500016506FF003020AE04FEAC3214FEAC52064
:104D6000F40241EA555140EA56506FF0020202EB5C
:104D70002E4201EB025585EACE710AD05FEA440C5F
:104D800018BF24F0004450F1000041F1000120EA76
:104D9000D47040F2FE7C624500D270BDA84214BFC0
:104DA0004FF080444FF04044002E08BF0024BEF175
:104DB000806FA8BFA1F1C041BDE8704080F2828041
:104DC0004FF0000001F1C04101F0004170479EEA40
:104DD0000C0F0CEA131518BF95EA0C0F06D04FF014
:104DE000000081EA030E0EF0004170BD00F01CF8D7
:104DF0008900013E00F007B800F009B84FEA430C03
:104E00005FEA5C5C08D081EA030100F05BB84FEA1E
:104E1000410C5FEA5C5CF6D14FF00000014970473D
:104E20000000FF070000F87F0EF1020E2EF0030EC7
:104E30005EF8046B364205D4012A43EB030515F5F1
:104E4000001F12D8012841EB010C1CF5001F0CD8E3
:104E50000ED14FEAD17C15F5001F0CEB4C0C0CF178
:104E6000020C08BF4CEBD37C04E04FF0080C01E0CF
:104E70004FEAD37C0CEB4C0526FA05F606F0070644
:104E8000B6F1040C06D20EEB860CBDE870404CF077
:104E9000010C6047DFE80CF0090B02024FF0004103
:104EA0004FF00000A1F5002170BD19461046012801
:104EB00051EB010418BFD4F5001484BF002001F0A9
:104EC000004170BD0808A0F500114FEA310170479C
:104ED00091EA030F10B581F000413FF57BAC83F000
:104EE000004300F0D5B800002DE9F04101F5801C29
:104EF000BCF5001FC0F2A9804FEA115C21EA0C51F9
:104F00000CF1FD0C41F480115FEA5C0C0CF5C07CE7
:104F100001D34000494130A4890241EA90518702FF
:104F20008E0E0A0CA45D04FB04F602FB06F6C6F125
:104F30004046A4FB0662F60D46EA422606FB06F44E
:104F4000A4FB01235242C3F1404338BF5B1EA6FBC2
:104F500002420024E6FB0324D20B42EA4446A6FBAD
:104F60000623A1FB02E2A3FB07E4E3FB61426442E8
:104F7000C2F1404E38BFAEF1010EA6FB04234FF044
:104F80000002E6FB0E32A2FB03463400E2FB626441
:104F9000A1FB06E6A4FB07E8E4FB61687642C8F1E2
:104FA000405838BFA8F10108A2FB06E4A3FB08E5BE
:104FB000E2FB6854A1FB05E6A7FB04E8E1FB64867D
:104FC00018F1200556F10006A809A8F11B08B1093F
:104FD00008F03F08B8F10A0F40EA86601CD901EBDF
:104FE0000C51BDE8F08100BFFCF5EEE8E2DDD8D35E
:104FF000CFCBC7C3C0BDB9B6B4B1AEACA9A7A5A34A
:10500000A19F9D9B9A9896959392908F8D8C8B895A
:105010008887868584838281A0FB006800FB01F27B
:1050200008EB4208B8EB872807D5341858EB010481
:10503000D5D5401C51F10001D1E7341A78EB0104B9
:10504000CDD4401E71F10001C9E75FEA4C0C5FEA64
:105050009C5C0DD105D34FF0000001F00041BDE88C
:10506000F081BDE8F04170B5FFF7DEFE6DDBFFBEFD
:10507000BDE8F0414FF00000004970470000F87FA4
:1050800010B591EA030F48BF83F000433FF5A2AB90
:10509000841A71EB030C07D212198CF0004C43EB0D
:1050A0000C03001B61EB0C01DFF8A4E14FEA115483
:1050B000A4EB135C1EEA430F18BF9EEA445F00F0A6
:1050C000B08023EA6E03524221EA0451C3EB6E031F
:1050D00038BF5B1EDCF1200E25D322FA0CFE10EB4C
:1050E0000E0043FA0CFE41EB0E01CCF1200E03FA48
:1050F0000EFE10EB0E0051F10001CCF1200E29D470
:1051000012FA0EF201EB0451BDE8104058BF70478F
:10511000401C1CBFB2F1004F704700280CBF491C57
:1051200020F00100704712EB020E43EB030218BFA0
:105130004FF0010E4EEA4202ACF1200CDCF11E0EE3
:1051400054D943FA0CFE10EB0E0051F1FF31CCF1B3
:105150001E0ED5D50EF1010E12FA0EFE404141EBA6
:10516000010101EB445C5FEA5C5C10D910EBDE707E
:1051700001EB045138BFBEF1004FBDE8104018BF2D
:10518000704700280CBF491C20F00100704730D246
:105190004FEAD42C11F5001124F400641BD0B1FAAD
:1051A00081F20B3AA41AA41ED2F12003914030FAE6
:1051B00003F31943904001EBCC71002C01EB045137
:1051C000BDE81040A8BF704701F1C0414FF000009A
:1051D00001F000417047B0FA80F310FA03F100D1FA
:1051E00010BDE41A173C4805C90AE4E701EB045175
:1051F00010BD491001EB0451BDE810404FEA3000EA
:1052000002E04FF0000170474A0008BF0042F8D0AA
:10521000B2F5001F28BF704701F000414FF00000B9
:1052200070479EEA445F07D011EA5E0FBDE8104068
:1052300004BF002100207047BDE8104070B5FFF7A3
:10524000F3FD00BF40DFF63E83F00041104670479B
:105250000000E0FF43004FEAD30C4FEA3C0C434010
:105260001FBF40070CF1605113F0FE4F70471CF058
:10527000006F03D100200CF0004170470CF0004398
:1052800043EA507010B540EACC0000F00EF800BFC1
:10529000000000924FEA0001FFF714BE4FF00041FA
:1052A0004FF00000A1F5002170470EF1020E2EF024
:1052B000030E5EF8044B244204D44FEA4102B2F1DB
:1052C0007F4F11D84FEA4003B3F17F4F0CD80ED176
:1052D0004FEAD07CB2F17F4F0CEB4C0C0CF1020C7E
:1052E00008BF4CEBD17C04E04FF0080C01E04FEA22
:1052F000D17C0CEB4C0324FA03F404F00704B4F162
:10530000040C06D20EEB840CBDE810404CF0010CEE
:105310006047DFE80CF0070802024FF00040A0F5FC
:10532000800010BD0846420018BFD2F1807288BFCD
:1053300000F0004010BD4FF04070E1EE100A7047E1
:10534000FF2141EAD050C005704700000000000076
:10535000555555555555C53F7D6FEB0312D6D4BFF6
:105360005544880E55C1C93F3B8F68B52882A4BFFC
:1053700088B20175E0EF493F09F7FD0DE13D023FBD
:105380004B2D8A1C273A03C0C88A599CE52A004045
:1053900059018D1B6C06E6BF82922EB1C5B8B33F92
:1053A0004FBB610567ACDD3F182D4454FB21E93F3D
:1053B0009BF681D20B73EF3F182D4454FB21F93F2C
:1053C000E2652F227F2B7A3C075C143326A6813CB2
:1053D000BDCBF07A8807703C075C143326A6913C5D
:1053E000C4EB98999999C9BF711623FEC671BCBFC9
:1053F0006D9A74AFF2B0B3BF9AFDDE522DDEADBF31
:105400002F6C6A2C44B4A2BF0D5555555555D53F48
:10541000FF8300922449C23F6E204CC5CD45B73F63
:10542000513DD0A0660DB13FEB0D76244B7BA93FDB
:1054300011DA22E33AAD903F4C5555555555A53FED
:105440007751C1166CC156BF9015CB19A001FA3E19
:10545000AD529C804F7E92BEC4B1B4BD9EEE213E43
:10546000D43888BEE9FAA8BD00004054FB21F93FBA
:105470003163621A61B4D03D0000601A61B4D03D5E
:105480007370032E8A19A33B0000002E8A19A33BD8
:10549000C14920259A837B390000000000000000EC
:1054A0006E83F9A22915444ED15727FCC0DD34F58F
:1054B000999562DB4190433CAB6351FE61C5BBDE15
:1054C0003A6E24B7E0D24D42EA2E49061C92D10929
:1054D0001CEB1DFE3EA729B1F53582E88444BB2EA6
:1054E00026709CE9417E5FB439D69139F4395383F3
:1054F0008B5F849C3B28F9BDFF97F81F0F9805DE52
:105500008B112FEF1F6D0A5ACF7E366DB709CB274F
:10551000663F464F2DEA5F9EC7BA27757BF1E5EBE4
:10552000F739073DEA92528AB15FFB6B085D8D1F28
:10553000A6F810111111813FD561C119A0012ABF30
:105540007DFEB157E31DC73EEB9C2B8AE6E55ABEB4
:105550007CD5CF5A3AD9E53D7855000800000020A7
:1055600044000000C4010008BC55000844000020AD
:105570002C070000E00100085A5A2D2D5A5A5A5A99
:105580002D2D5A5A0000000000000000000000000D
:10559000000000000000000000000000000000000B
:1055A00000000000000000000000000000000102F8
:0C55B000030401020304060708090000C0
:040000050800018965
:00000001FF
